{
  "_format": "hh-sol-artifact-1",
  "contractName": "ElectionManager",
  "sourceName": "contracts/ElectionManager.sol",
  "abi": [
    {
      "inputs": [
        {
          "internalType": "address",
          "name": "owner_",
          "type": "address"
        }
      ],
      "stateMutability": "nonpayable",
      "type": "constructor"
    },
    {
      "inputs": [
        {
          "internalType": "address",
          "name": "owner",
          "type": "address"
        }
      ],
      "name": "OwnableInvalidOwner",
      "type": "error"
    },
    {
      "inputs": [
        {
          "internalType": "address",
          "name": "account",
          "type": "address"
        }
      ],
      "name": "OwnableUnauthorizedAccount",
      "type": "error"
    },
    {
      "anonymous": false,
      "inputs": [
        {
          "indexed": true,
          "internalType": "address",
          "name": "previousOwner",
          "type": "address"
        },
        {
          "indexed": true,
          "internalType": "address",
          "name": "newOwner",
          "type": "address"
        }
      ],
      "name": "OwnershipTransferred",
      "type": "event"
    },
    {
      "anonymous": false,
      "inputs": [
        {
          "indexed": true,
          "internalType": "uint256",
          "name": "electionId",
          "type": "uint256"
        },
        {
          "indexed": true,
          "internalType": "uint256",
          "name": "choiceId",
          "type": "uint256"
        },
        {
          "indexed": true,
          "internalType": "bytes32",
          "name": "voterKey",
          "type": "bytes32"
        }
      ],
      "name": "VoteCast",
      "type": "event"
    },
    {
      "inputs": [
        {
          "internalType": "uint256",
          "name": "electionId",
          "type": "uint256"
        },
        {
          "internalType": "uint256",
          "name": "choiceId",
          "type": "uint256"
        }
      ],
      "name": "getChoiceCount",
      "outputs": [
        {
          "internalType": "uint256",
          "name": "",
          "type": "uint256"
        }
      ],
      "stateMutability": "view",
      "type": "function"
    },
    {
      "inputs": [
        {
          "internalType": "bytes32",
          "name": "",
          "type": "bytes32"
        }
      ],
      "name": "hasVoted",
      "outputs": [
        {
          "internalType": "bool",
          "name": "",
          "type": "bool"
        }
      ],
      "stateMutability": "view",
      "type": "function"
    },
    {
      "inputs": [
        {
          "internalType": "uint256",
          "name": "electionId",
          "type": "uint256"
        },
        {
          "internalType": "bytes32",
          "name": "voterKey",
          "type": "bytes32"
        },
        {
          "internalType": "uint256",
          "name": "choiceId",
          "type": "uint256"
        }
      ],
      "name": "markVotedAndCount",
      "outputs": [],
      "stateMutability": "nonpayable",
      "type": "function"
    },
    {
      "inputs": [],
      "name": "owner",
      "outputs": [
        {
          "internalType": "address",
          "name": "",
          "type": "address"
        }
      ],
      "stateMutability": "view",
      "type": "function"
    },
    {
      "inputs": [],
      "name": "renounceOwnership",
      "outputs": [],
      "stateMutability": "nonpayable",
      "type": "function"
    },
    {
      "inputs": [
        {
          "internalType": "address",
          "name": "newOwner",
          "type": "address"
        }
      ],
      "name": "transferOwnership",
      "outputs": [],
      "stateMutability": "nonpayable",
      "type": "function"
    },
    {
      "inputs": [
        {
          "internalType": "uint256",
          "name": "",
          "type": "uint256"
        },
        {
          "internalType": "uint256",
          "name": "",
          "type": "uint256"
        }
      ],
      "name": "votesCount",
      "outputs": [
        {
          "internalType": "uint256",
          "name": "",
          "type": "uint256"
        }
      ],
      "stateMutability": "view",
      "type": "function"
    }
  ],
  "bytecode": "0x608060405234801561001057600080fd5b50604051610aa4380380610aa4833981810160405281019061003291906101e2565b80600073ffffffffffffffffffffffffffffffffffffffff168173ffffffffffffffffffffffffffffffffffffffff16036100a55760006040517f1e4fbdf700000000000000000000000000000000000000000000000000000000815260040161009c919061021e565b60405180910390fd5b6100b4816100bb60201b60201c565b5050610239565b60008060009054906101000a900473ffffffffffffffffffffffffffffffffffffffff169050816000806101000a81548173ffffffffffffffffffffffffffffffffffffffff021916908373ffffffffffffffffffffffffffffffffffffffff1602179055508173ffffffffffffffffffffffffffffffffffffffff168173ffffffffffffffffffffffffffffffffffffffff167f8be0079c531659141344cd1fd0a4f28419497f9722a3daafe3b4186f6b6457e060405160405180910390a35050565b600080fd5b600073ffffffffffffffffffffffffffffffffffffffff82169050919050565b60006101af82610184565b9050919050565b6101bf816101a4565b81146101ca57600080fd5b50565b6000815190506101dc816101b6565b92915050565b6000602082840312156101f8576101f761017f565b5b6000610206848285016101cd565b91505092915050565b610218816101a4565b82525050565b6000602082019050610233600083018461020f565b92915050565b61085c806102486000396000f3fe608060405234801561001057600080fd5b506004361061007d5760003560e01c80635b05dfa01161005b5780635b05dfa014610112578063715018a61461012e5780638da5cb5b14610138578063f2fde38b146101565761007d565b80631b4613cb146100825780632a9d0f2e146100b25780635035ca7c146100e2575b600080fd5b61009c6004803603810190610097919061053b565b610172565b6040516100a99190610583565b60405180910390f35b6100cc60048036038101906100c791906105d4565b610192565b6040516100d99190610623565b60405180910390f35b6100fc60048036038101906100f791906105d4565b6101c1565b6040516101099190610623565b60405180910390f35b61012c6004803603810190610127919061063e565b6101e6565b005b6101366102ea565b005b6101406102fe565b60405161014d91906106d2565b60405180910390f35b610170600480360381019061016b9190610719565b610327565b005b60026020528060005260406000206000915054906101000a900460ff1681565b600060016000848152602001908152602001600020600083815260200190815260200160002054905092915050565b6001602052816000526040600020602052806000526040600020600091509150505481565b6101ee6103ad565b6002600083815260200190815260200160002060009054906101000a900460ff161561024f576040517f08c379a0000000000000000000000000000000000000000000000000000000008152600401610246906107a3565b60405180910390fd5b60016002600084815260200190815260200160002060006101000a81548160ff0219169083151502179055506001806000858152602001908152602001600020600083815260200190815260200160002060008282546102af91906107f2565b925050819055508181847f96c313364ec07441c94195f44ed1e5f2656059c98a7c0c68466dac90c6fd8bf960405160405180910390a4505050565b6102f26103ad565b6102fc6000610434565b565b60008060009054906101000a900473ffffffffffffffffffffffffffffffffffffffff16905090565b61032f6103ad565b600073ffffffffffffffffffffffffffffffffffffffff168173ffffffffffffffffffffffffffffffffffffffff16036103a15760006040517f1e4fbdf700000000000000000000000000000000000000000000000000000000815260040161039891906106d2565b60405180910390fd5b6103aa81610434565b50565b6103b56104f8565b73ffffffffffffffffffffffffffffffffffffffff166103d36102fe565b73ffffffffffffffffffffffffffffffffffffffff1614610432576103f66104f8565b6040517f118cdaa700000000000000000000000000000000000000000000000000000000815260040161042991906106d2565b60405180910390fd5b565b60008060009054906101000a900473ffffffffffffffffffffffffffffffffffffffff169050816000806101000a81548173ffffffffffffffffffffffffffffffffffffffff021916908373ffffffffffffffffffffffffffffffffffffffff1602179055508173ffffffffffffffffffffffffffffffffffffffff168173ffffffffffffffffffffffffffffffffffffffff167f8be0079c531659141344cd1fd0a4f28419497f9722a3daafe3b4186f6b6457e060405160405180910390a35050565b600033905090565b600080fd5b6000819050919050565b61051881610505565b811461052357600080fd5b50565b6000813590506105358161050f565b92915050565b60006020828403121561055157610550610500565b5b600061055f84828501610526565b91505092915050565b60008115159050919050565b61057d81610568565b82525050565b60006020820190506105986000830184610574565b92915050565b6000819050919050565b6105b18161059e565b81146105bc57600080fd5b50565b6000813590506105ce816105a8565b92915050565b600080604083850312156105eb576105ea610500565b5b60006105f9858286016105bf565b925050602061060a858286016105bf565b9150509250929050565b61061d8161059e565b82525050565b60006020820190506106386000830184610614565b92915050565b60008060006060848603121561065757610656610500565b5b6000610665868287016105bf565b935050602061067686828701610526565b9250506040610687868287016105bf565b9150509250925092565b600073ffffffffffffffffffffffffffffffffffffffff82169050919050565b60006106bc82610691565b9050919050565b6106cc816106b1565b82525050565b60006020820190506106e760008301846106c3565b92915050565b6106f6816106b1565b811461070157600080fd5b50565b600081359050610713816106ed565b92915050565b60006020828403121561072f5761072e610500565b5b600061073d84828501610704565b91505092915050565b600082825260208201905092915050565b7f416c726561647920766f74656400000000000000000000000000000000000000600082015250565b600061078d600d83610746565b915061079882610757565b602082019050919050565b600060208201905081810360008301526107bc81610780565b9050919050565b7f4e487b7100000000000000000000000000000000000000000000000000000000600052601160045260246000fd5b60006107fd8261059e565b91506108088361059e565b92508282019050808211156108205761081f6107c3565b5b9291505056fea26469706673582212203c992ca4c6fbc2c8aaafe62be3288244a13bb6cd54ae0e65ebc82ed26bcbd8f464736f6c63430008140033",
  "linkReferences": {},
  "deployedLinkReferences": {}
}